:020000040800F2
:100000000000012069040008B9040008B9040008D0
:10001000B9040008B9040008B90400080000000091
:10002000000000000000000000000000B90400080B
:10003000B904000800000000B9040008B904000871
:10004000B9040008B9040008B9040008B90400089C
:10005000B9040008B9040008B9040008B90400088C
:10006000B9040008B9040008B9040008B90400087C
:10007000B9040008B9040008B9040008B90400086C
:10008000B9040008B9040008B90400080000000021
:10009000000000000000000000000000B90400089B
:1000A000B9040008B9040008B9040008B90400083C
:1000B000B9040008B9040008B9040008B90400082C
:1000C000B9040008B9040008B9040008B90400081C
:1000D000B9040008B9040008B904000800000000D1
:1000E000B9040008B9040008B904000800000000C1
:1000F000000000000000000000000000B90400083B
:1001000000000000B9040008B9040008B9040008A0
:1001100000000000000000000000000000000000DF
:10012000B9040008B9040008B9040008B9040008BB
:10013000B9040008000000000000000000000000FA
:10014000000000000000000000000000B9040008EA
:10015000B9040008B9040008B9040008B90400088B
:10016000B9040008B9040008000000000000000005
:10017000000000000000000000000000000000007F
:1001800000000000B90400080000000000000000AA
:04019000B9040008A6
:100194000348044B834202D0034B03B11847704712
:1001A400000000200000002000000000054806496F
:1001B4000B1AD90F01EBA301491002D0034B03B171
:1001C40018477047000000200000002000000000D5
:1001D40010B5064C237843B9FFF7DAFF044B13B18B
:1001E4000448AFF300800123237010BD00000020F9
:1001F40000000000BC04000808B5044B1BB104490E
:100204000448AFF30080BDE80840CFE700000000D9
:1002140004000020BC04000870B50D4E0D4D761B83
:10022400B61006D0002455F8043B01349847A64282
:10023400F9D1094E094D761B00F03EF9B61006D0EF
:10024400002455F8043B01349847A642F9D170BD07
:10025400F4040008F4040008F8040008F404000896
:100264001D4A136843F4803313601B4B1B6813F45B
:10027400003FFAD0184B5A6842F480025A601A6C54
:1002840042F080521A6415490A6842F400420A6036
:1002940001F5E6310A6842F4E06242F002020A60C3
:1002A40059680F4A0A435A609A689A601A6842F079
:1002B40080721A60084B1B6813F0807FFAD0064ADC
:1002C400936843F002039360034B9B6803F00C03B1
:1002D400082BF9D1704700BF00380240007000407D
:1002E400193F0200084A136B43F001031363074BE1
:1002F4001A6842F420121A609A6842F420129A6032
:100304004FF4EE625A627047003802400000024027
:100314000A4A536C43F480235364094B29229A629A
:100324004FF6FF72DA621A6842F001021A60044B57
:100334001B6913F0010FFAD0704700BF0038024068
:1003440000480140034B00225A62024B5B6A83421D
:10035400FBD370470048014038B50546002405E04A
:100364004FF47A70FFF7EEFF0134A4B2AC42F7D336
:1003740038BD000010B584B0FFF772FFFFF7B2FF7D
:10038400FFF7C6FF0B4A01AB07CA83E8070019460B
:10039400094800F015F803E04FF47A70FFF7DCFF2A
:1003A400064C21780029F7D0034800F053F80134B3
:1003B400F7E700BFD404000800100140E00400087F
:1003C400214B984233D0214B984236D0204A136CAB
:1003D40043F400331364C36843F40053C3604B7A9B
:1003E40043B1C36843F48063C360C3688A7A43EA51
:1003F4004223C360036943F4405303614B680A68B2
:10040400B3FBF2F3013383600B7A012B06D0022B8A
:1004140008D05BB9C36843F00803C360C36843F002
:100424000403C360C36843F00C03C3607047084A05
:10043400536C43F010035364CDE7054A536C43F007
:1004440020035364C7E700BF0010014000140140BB
:1004540000380240036813F0800FFBD041607047FE
:1004640070470000DFF834D0FFF7FAFF0C480D495D
:100474000D4A002302E0D458C4500433C4188C42FB
:10048400F9D30A4A0A4C002301E013600432A24261
:10049400FBD3FFF7C1FEFFF76DFF7047000001209B
:1004A4000000002000000020FC04000800000020E0
:1004B4001C000020FEE70000F8B500BFF8BC08BC33
:1004C4009E467047F8B500BFF8BC08BC9E4670470E
:1004D4008025000080DE80020000000048656C6C0E
:1004E4006F20576F726C64203A290A0D00000000D7
:0404F400FD010008FE
:0404F800D501000822
:040000050800046982
:00000001FF
