:020000040800F2
:104000000000012069430008B9430008B9430008D3
:10401000B9430008B9430008B94300080000000094
:10402000000000000000000000000000B94300088C
:10403000B943000800000000B9430008B943000874
:10404000B9430008B9430008B9430008B943000860
:10405000B9430008B9430008B9430008B943000850
:10406000B9430008B9430008B9430008B943000840
:10407000B9430008B9430008B9430008B943000830
:10408000B9430008B9430008B94300080000000024
:10409000000000000000000000000000B94300081C
:1040A000B9430008B9430008B9430008B943000800
:1040B000B9430008B9430008B9430008B9430008F0
:1040C000B9430008B9430008B9430008B9430008E0
:1040D000B9430008B9430008B943000800000000D4
:1040E000B9430008B9430008B943000800000000C4
:1040F000000000000000000000000000B9430008BC
:1041000000000000B9430008B9430008B9430008A3
:10411000000000000000000000000000000000009F
:10412000B9430008B9430008B9430008B94300087F
:10413000B94300080000000000000000000000007B
:10414000000000000000000000000000B94300086B
:10415000B9430008B9430008B9430008B94300084F
:10416000B9430008B9430008000000000000000047
:10417000000000000000000000000000000000003F
:1041800000000000B943000800000000000000002B
:04419000B943000827
:104194000348044B834202D0034B03B118477047D2
:1041A400000000200000002000000000054806492F
:1041B4000B1AD90F01EBA301491002D0034B03B131
:1041C4001847704700000020000000200000000095
:1041D40010B5064C237843B9FFF7DAFF044B13B14B
:1041E4000448AFF300800123237010BD00000020B9
:1041F40000000000BC43000808B5044B1BB104498F
:104204000448AFF30080BDE80840CFE70000000099
:1042140004000020BC43000870B50D4E0D4D761B04
:10422400B61006D0002455F8043B01349847A64242
:10423400F9D1094E094D761B00F0BEF8B61006D030
:10424400002455F8043B01349847A642F9D170BDC7
:10425400EC430008EC430008F0430008EC4300087A
:10426400074A536C43F480235364064B0F229A622B
:104274004FF6FF72DA621A6842F001021A60704760
:104284000038024000480140034B00225A62024BAE
:104294005B6A8342FBD370470048014038B505464A
:1042A400002405E04FF47A70FFF7EEFF0134A4B266
:1042B400AC42F7D338BD000007E0064B1B6813F08F
:1042C400800FFAD0034B5A6001300278002AF4D1EF
:1042D400704700BF0010014008B5FFF7C1FF1B4C39
:1042E400636C43F010036364236B43F001032363A3
:1042F400174B1A6842F420121A605A6A42F4EE62AA
:104304005A62144A40F282639360D36843F40053C0
:1043140043F00803D3601048FFF7CEFF236B43F04C
:10432400040323630D4B1A6822F040621A601A6872
:1043340042F080621A60094A536983F4005353615E
:104344004FF47A70FFF7AAFFF5E700BF0038024088
:104354000000024000100140D4430008000802405D
:1043640070470000DFF834D0FFF7FAFF0C480D491E
:104374000D4A002302E0D458C4500433C4188C42BC
:10438400F9D30A4A0A4C002301E013600432A24222
:10439400FBD3FFF741FFFFF79FFF704700000120A9
:1043A4000000002000000020F4430008000000206A
:1043B4001C000020FEE70000F8B500BFF8BC08BCF4
:1043C4009E467047F8B500BFF8BC08BC9E467047CF
:1043D4000A0D52756E6E696E6720626C696E6B2E83
:0843E4002E2E0A0D000000005E
:0443EC00FD41000887
:0443F000D5410008AB
:040000050800436943
:00000001FF
